:100000000C943D000C9471000C9471000C947100E0
:100010000C9471000C9471000C9471000C9471009C
:100020000C9471000C9471000C9471000C9471008C
:100030000C9471000C9471000C9471000C9471007C
:100040000C9471000C940C060C9405060C94130689
:100050000C9471000C9471000C9471000C9471005C
:100060000C9471000C94E9050C9471000C947100CF
:100070000C9471000C947100D70B11241FBECFEFAC
:10008000CDBFDFE3DEBF809140008093400081114F
:1000900005C098ED21E094BF209341008CBB18E38C
:1000A000A0E0B8E3ECE8F3E202C005900D92A230C4
:1000B000B107D9F729E3A2E0B8E301C01D92A03A45
:1000C000B207E1F710E0CDE3D0E004C02197FE01D4
:1000D0000E94A80ECC33D107C9F70E948E060C945B
:1000E00025110C9400009FB7F894E0919A0AF091C2
:1000F0009B0A8091960A20919739309198394091C6
:10010000993950919A399FBF80FF08C0CF01882745
:10011000892B21F42F5F3F4F4F4F5F4F0F011694F4
:1001200007941694079416940794F0011694079474
:1001300016940794E019F109169407940694102C6C
:1001400016941694011816941694010C1124E00DBF
:10015000F11DA8EEB3E00E949D0E6E0F7F1F811D62
:10016000911D0895CF92DF92EF92FF92CF93DF938C
:100170006B017C010E947300EB01C114D104E10406
:10018000F10441F413C081E0C81AD108E108F10874
:10019000C851DC4F0E9473006C1B7D0B683E73409E
:1001A00060F3C114D104E104F10469F7DF91CF9148
:1001B000FF90EF90DF90CF900895AF92BF92CF92D3
:1001C000DF92EF92FF920F931F93CF93DF936C0117
:1001D0007B018B01040F151FEB015E01AE18BF08F8
:1001E000C017D10759F06991D601ED91FC910190AA
:1001F000F081E02DC6010995892B79F7C501DF91C2
:10020000CF911F910F91FF90EF90DF90CF90BF9013
:10021000AF900895FC0157854089252F30E0842F49
:1002200090E0821B930B541710F0CF96089501971E
:100230000895FC0195858685981761F0A685AE0F17
:10024000BF2FB11D51968C9196859F5F9F739687A6
:1002500090E008958FEF9FEF0895FC0195858685C6
:10026000981731F08685E80FF11D818990E0089597
:100270008FEF9FEF0895FC0195852685892F90E0EB
:10028000805C9F4F821B91098F7399270895FC0111
:100290000FB607FE04C0809111018823A9F0A08544
:1002A000B18514968C91149785FF0EC0978580892F
:1002B000981307C015968C9115978F7D15968C9382
:1002C0000895E8940C94210608950F931F93CF93FB
:1002D000DF93EC018C8581608C879F8588899813DA
:1002E0000BC0E885F985848185FF06C08C8581FD7A
:1002F0000EC080E4848313C0062F1F851F5F1F7309
:100300008889811316C0CE010E944701F9CF8581EB
:100310008F77806490E49483E885F9858583E88508
:10032000F985628381E090E0DF91CF911F910F9179
:100330000895EF85EC0FFD2FF11DEF5AFF4F00835D
:100340001F878C85E885F98581FF09C085818F77B6
:10035000806690E49483E885F9858583E3CF858181
:100360008062FBCFCF93DF93EC018C85882361F013
:10037000E885F985858185FD03C0848186FD04C0FB
:10038000CE010E944701F4CFDF91CF910895CF9322
:10039000DF93282F30E0E901C457DD4588818F3F86
:1003A00009F43BC0A90140585D45DA01EC91B0E287
:1003B000EB9FF0011124FC5F611132C086839081B4
:1003C0008923A1F4C9018C589D45DC019C9130978B
:1003D00049F1983038F57096E90FF11D9FB7F89400
:1003E0008081611122C0877F80839FBF28593D454E
:1003F000F9018081882389F0803179F48881DA01DC
:100400009C919130A1F4853010F0880F82959091E5
:10041000010A809589238093010ADF91CF91089585
:100420008583CDCFF0E0E0E0D9CF8860DDCF880FC5
:10043000EECFCF93DF93D62FC42F682F82E00E9498
:10044000C7016D2F81E00E94C7016C2F83E0DF910F
:10045000CF910C94C7018F929F92AF92BF92CF928F
:10046000DF92EF92FF920F931F939FB7F894009142
:100470009739109198392091993930919A399FBFC5
:10048000C0909C39D0909D39E0909E39F0909F3972
:10049000480159018C189D08AE08BF087501640118
:1004A00094EFC91691E0D906E104F10470F00093CD
:1004B0009C3910939D3920939E3930939F399091A8
:1004C0009B3921E0922790939B3990919B399923F6
:1004D00061F01F910F91FF90EF90DF90CF90BF9050
:1004E000AF909F908F900C94190240E060E080E004
:1004F000F0CF8C30F0F490E0FC01E457FD45208112
:100500002F3FB9F0FC01E058FD45E08130E2E39F68
:10051000F0011124FC5F60FF0DC021838C589D45C4
:10052000DC018C91E80FF11D808961FF05C08860B6
:10053000808B08952283F2CF877FFACF98EF980FB0
:10054000933038F5875090910006992389F1909166
:100550000A06977081F580930C06809100388F70A1
:1005600091E0893008F091E190930A069091050698
:1005700090FFFCCF8A3099F480911006909111067B
:10058000A0911206B091130695958795959587953C
:100590000895863011F08BE0D6CF8AE0D4CF8091D9
:1005A000100690911106A0911206B09113060895BD
:1005B00089EF92E808958EEF92E808958F929F92C6
:1005C000AF92BF92CF92DF92EF92FF920F931F9361
:1005D000CF93DF938C01FC01C785D08989E00E940D
:1005E0009E02BC01990F880B990B0E94D90F29E933
:1005F00039E944E852E40E942F0F20E030E040E85F
:100600005EE30E948E106B017C01F801C286D386E6
:10061000E486F58620E030E0A9010E942A0F8823B5
:1006200009F45AC0BE0190E080E00E94D70F27E98C
:100630003FEF40E95DE30E948E109B01AC0163EC4B
:1006400074E68CEB90E40E94BD0E4B015C012CEF34
:1006500039EA41EF5DE3C701B6010E948E1029E639
:1006600030E047EF5FE30E94BE0E20E030E040E064
:100670005FE30E94BE0E6B017C012DEC3CEC4CE470
:100680005EE30E94BE0E9B01AC01C501B4010E9455
:100690002A0F18160CF12DEC3CEC4CE45EE3C7017C
:1006A000B6010E94BD0E9B01AC01D1E0C0E0C501C6
:1006B000B4010E94891087FDD0E08D2F9C2FDF911F
:1006C000CF911F910F91FF90EF90DF90CF90BF904F
:1006D000AF909F908F90089580E090E0F0CFFC0164
:1006E00001900020E9F73197AF01481B590BBC017D
:1006F00082E098E30E94DD0042E050E068E972EA9F
:1007000082E098E30C94DD00CF93DF93EC0160E08E
:1007100088E00E94C7018EE48093290AECADFDAD0C
:100720008EE490E08787908B18AE19AE1AAE1BAEA0
:100730001286138614861586DF91CF910895CF9285
:10074000DF92EF92FF920F931F93CF93DF932FB718
:10075000F8944091973950919839609199397091F6
:100760009A392FBF8C0100591F4FF801C080D180EA
:10077000E280F380C114D104E104F10469F4408300
:10078000518362837383DF91CF911F910F91FF900B
:10079000EF90DF90CF9008954C195D096E097F09A5
:1007A000413E53496440710570F3EC016BE972EA14
:1007B00087E599E30E94FB1087E599E30E946F03A8
:1007C00086E090E08A839B83F80110821182128276
:1007D0001382D9CF4F925F926F927F928F929F92A6
:1007E000AF92BF92CF92DF92EF92FF920F931F933F
:1007F000CF93DF93CDB7DEB76297CDBFDEBF898BD6
:100800009A8BDC01DC960D911C91DD97D896CD90EA
:10081000DD90ED90FC90DB979A01AB01C701B6012A
:100820000E942A0F87FF0EC020E030E040E05FE327
:10083000C701B6010E94BE0EE989FA8960AF71AFA7
:1008400082AF93AF89E00E949E02BC01990F880B92
:10085000990B0E94D90F29E939E944E852E40E9432
:100860002F0F20E030E040E85EE30E948E106983A5
:100870007A838B839C83D8011A966D937D938D9395
:100880009C931D97A989BA89D8968D919D910D90B9
:10089000BC91A02D89879A87AB87BC8729813A8133
:1008A0004B815C81BC01CD010E94BD0E6B017C01BE
:1008B000E989FA8920813181428153810E948E1019
:1008C0006D877E878F87988BA989BA8990968D913D
:1008D0009D910D90BC91A02D8D839E83AF83B88791
:1008E00020E030E040E05FE3E989FA8964817581C6
:1008F000868197810E948E102D813E814F8158857F
:100900000E948E104B015C01A989BA8998962D919D
:100910003D914D915C919B97C701B6010E94BE0E1F
:100920009B01AC01C501B4010E948E10E989FA89CE
:1009300024A135A146A157A10E94BE0E4B015C0126
:10094000A989BA8994968D929D92AD92BC929797FF
:100950005C964D905D906D907C905F97A3019201A5
:100960000E94891018163CF4E989FA8944A255A21C
:1009700066A277A210C0A989BA8958964D905D9059
:100980006D907C905B97A3019201C501B4010E9418
:100990002A0F87FDE9CFA989BA891C966D917D91AF
:1009A0008D919C911F979B01AC010E94BE0E2B0163
:1009B0003C01E989FA8960857185828593859B016F
:1009C000AC010E94BE0E4B015C01A989BA89D09688
:1009D0002D913D914D915C91D39769817A818B8165
:1009E0009C810E94BD0E9B01AC01C501B4010E9417
:1009F0008E104B015C012D813E814F815885C301D2
:100A0000B2010E94BD0EE989FA8924A535A546A543
:100A100057A50E948E109B01AC01C501B4010E9434
:100A2000BE0E4B015C01B7FAB094B7F8B094A301C5
:100A300092016D817E818F8198850E94BE0E9B01FF
:100A4000AC01C501B4010E942F0F4B015C01A989C3
:100A5000BA899C968D929D92AD92BC929F979496E6
:100A60002D913D914D915C9197976D857E858F85F8
:100A700098890E94BE0EA50194010E94BE0E4B01F2
:100A80005C01E989FA8984AA95AAA6AAB7AA44882A
:100A9000558866887788A30192010E9489101816EC
:100AA0004CF4A989BA89D4964D925D926D927C924C
:100AB000D7970EC0E989FA8940885188628873887F
:100AC000A3019201C501B4010E942A0F87FDE9CF5D
:100AD000E989FA89C0A6D1A6E2A6F3A689819A81FE
:100AE000AB81BC8180AB91ABA2ABB3AB44A855A8A2
:100AF00066A877A8A301920160E070E08CE992E417
:100B00000E94BD0E0E94A80F4B01C701B6010E94B2
:100B1000A80F7F936F93C301B2010E94A80F7F9328
:100B20006F939F928F9269857A858B859C850E94B1
:100B3000A80F7F936F9383EA92EA9F938F9303EDBD
:100B400018E31F930F930E940211C8010E946F03C4
:100B5000C4018397CDBFDEBF8C9730F58092290A00
:100B6000A989BA89DC96ED91FC918786908A61E02B
:100B700088E00E94C7016AE070E080E090E0629641
:100B8000CDBFDEBFDF91CF911F910F91FF90EF900E
:100B9000DF90CF90BF90AF909F908F907F906F909D
:100BA0005F904F900C94B2009F928F9289EC92EAE2
:100BB0009F938F931F930F930E94021183ED98E3ED
:100BC0000E946F030F900F900F900F900F900F9057
:100BD000CECFEF93FF93E7E9F9E38F938FB78F932E
:100BE00080818F5F808381818F4F818382818F4F4E
:100BF000828383818F4F838381E08093960A8F91D4
:100C00008FBF8F91FF91EF911895EF93FF93F89815
:100C1000E2E0F8E30C941906EF93FF93F898E2E012
:100C2000F8E30C944806EF93FF93E2E0F8E30C94AA
:100C300075062F932FB72F938F939F93AF93BF93E7
:100C40006894CF93DF9320E0C085D8E09089DF01DE
:100C5000A90FB21FAF5ABF4F8C9120E42C838A8317
:100C60009F5F9F738D812785291302C08F7D8D83A0
:100C7000908BDF91CF9116F00C946401BF91AF91EE
:100C80009F918F912F912FBF2F91FF91EF911895E9
:100C90002F932FB72F933F938F939F93CF93DF93F0
:100CA000C085D8E0898198818674880F3485382B77
:100CB00082FD0DC0C58581E08C0F8F7326852817B6
:100CC00091F0CE0FDF2F20E0D21F998B85873487DC
:100CD000DF91CF919F918F913F912F912FBF2F91B6
:100CE000FF91EF9118953064F2CF8F938FB78F9368
:100CF0009F93CF93DF93C085D8E09D8188818C81BD
:100D000087FDFCCF9F7B90689D83DF91CF919F9162
:100D10008F918FBF8F91FF91EF911895CF93DF93B4
:100D2000CDB7DEB7CC57D109CDBFDEBF88ED90E09F
:100D300084BF90936100E0E0F6E083E081839FE070
:100D4000908791E2908390EA92839AE09387109241
:100D5000E40591E09093030A2EEF2093260A209356
:100D6000270A2BE02093000A2FE037E220939C0A09
:100D700030939D0A9093950A1092910A8093900A5D
:100D8000789480910E3880FF12C082E098E30E9430
:100D9000B201E0910A38F0910B381682158280EC8E
:100DA00084838091103880930F3810920E38FFB6EC
:100DB000F894E0910A38F0910B38168283E087832B
:100DC0008DE890E280879187148680E8858380ECA7
:100DD000868390910D3800910C388091E2052CEFBC
:100DE000011123EF8223292F30E040E0011142E07E
:100DF000590102C0AA0CBB1C4A95E2F78A298093CC
:100E0000E205933099F0020F132F111D000F111FEF
:100E1000000F111F005A1D4561E0F80180810E94FA
:100E2000790262E0F80181810E947902FFBE61E0EF
:100E300088E00E94790260E088E00E94C70161E0DA
:100E40008AE00E94790280E18093010A8AE9809316
:100E5000270A8EE48093290A89E08093000A61E0E2
:100E600085E00E94790260E084E00E94790260E0FF
:100E700086E00E94790260E089E00E94790260E0E9
:100E800080E00E94790260E087E00E94790261E0E0
:100E900082E00E94790261E081E00E94790261E0D3
:100EA00083E00E94790280910038807F8C6080937B
:100EB000003887EA809302069E012F5F3F4F790139
:100EC0002D833E831F86188A198A1A8A1D861F82DF
:100ED00018861B8A8EE490E08C8B9D8B29873A873D
:100EE0001E86E5961CAE1DAE1EAE1FAEE5971B829C
:100EF0001C8219821A826F961EAE1FAE6F9768967B
:100F00001EAE1FAE689766961EAE1FAE66976D96B4
:100F10001CAE1DAE1EAE1FAE6D976E0138E5C30E42
:100F2000D11CF6011082CE010596A1968EAF9FAF1F
:100F3000A19762961CAE1DAE1EAE1FAE62974AE927
:100F400059E969E97FE34E8B5F8B688F798F4AE9B6
:100F500059E969E17FE34A8F5B8F6C8F7D8F1E8E2D
:100F60001F8E18A219A24AE057ED63EA7CE34AA358
:100F70005BA36CA37DA34DEC5CEC6CEC7DE34EAB12
:100F80005FAB68AF79AF1EA21FA218A619A640E0FA
:100F900050E06CE272E44AA75BA76CA77DA71EA68F
:100FA0001FA618AA19AA4AAB5BAB6CAB7DAB6496C3
:100FB0008EAF9FAF64978E010F591F4FF8011082BB
:100FC0001182A5961EAE1FAEA597AB961CAE1DAEA8
:100FD0001EAE1FAEAB979E0121593F4FE7962EAF35
:100FE0003FAFE797E1961EAE1FAEE197BE01635992
:100FF0007F4FE9966EAF7FAFE997AF961EAE1FAEFB
:10100000AF973A96EB96EEAFFFAFEB97AD961EAE6D
:101010001FAEAD972A503109ED962EAF3FAFED9739
:10102000A7968EAF9FAFA79762EE72EA87E599E326
:101030000E94FB1087E599E30E946F03BE0165598A
:101040007F4F3B0166968EAD9FAD669768968EAFDB
:101050009FAF689786E00E949E02BC01990F880BA3
:10106000990B0E94D70F0E94A10F0E94D90F2AE965
:1010700039E941EF50E40E948E100E94A10F4B010C
:101080005C0189E00E949E02BC01990F880B990BBC
:101090000E94D90F29E939E944E852E40E942F0F50
:1010A00020E030E040E85EE30E948E1020E030E077
:1010B00046E152E40E948E1020E030E04AEF53E413
:1010C0000E94BE0E0E94A10F072E000C880B990BE8
:1010D000860E971EA81EB91EC501B4010E94D90F25
:1010E0001B012C0120E030E04AE754E40E942F0F5E
:1010F0006D966CAF7DAF8EAF9FAF6D976F968EADD7
:101100009FAD6F97892B69F471E5871676E4970692
:10111000A104B10434F081E090E06F968EAF9FAFF0
:101120006F9768968EAD9FAD68978130910509F0F5
:10113000E6C0E1E28E16E7E69E06A104B1040CF0DB
:10114000D9C066961EAE1FAE669769961FAE6997A8
:1011500068EE72EA83E998E30E94FB1083E998E362
:101160000E946F0381E066962EAD3FAD6697232BFC
:1011700009F480E08D87A796EEADFFADA797C080FC
:10118000D180A3968EAD9FADA397A5968EAF9FAF4E
:10119000A597F30181818F9380818F9389E893EAEA
:1011A0009F938F9363E1A62E69E3B62EBF92AF9211
:1011B0000E940211C5010E946F03F6018081918196
:1011C0009C01235031090F900F900F900F900F90BA
:1011D0000F90F3012330310508F0CAC0108211824C
:1011E000A5968EAD9FADA597A3968EAF9FAFA39703
:1011F00021E0892B09F420E02E878FB7F8944091E5
:101200009739509198396091993970919A398FBF77
:101210008091533990915439A0915539B0915639F4
:10122000481B590B6A0B7B0B493E53406105710506
:1012300008F441C088519C4FAF4FBF4F8093533942
:1012400090935439A0935539B09356396F85788966
:1012500089899A890E94A10F7F936F93F8018181F8
:101260008F9380818F9320E030E040E251E46D96CF
:101270006CAD7DAD8EAD9FAD6D970E948E100E94BE
:10128000A10F7F936F9366968FAD66978F93659648
:101290008FAD65978F9384E193EA9F938F9387E552
:1012A00099E39F938F930E94021187E599E30E942F
:1012B0006F03CDBFDEBFCB80DC80C114D10409F445
:1012C00055C11B821C82DF92CF9285E593EA9F93E2
:1012D0008F9387E599E39F938F930E94021187E58F
:1012E00099E30E946F030F900F900F900F900F9053
:1012F0000F9048C166968EAF9FAF669733CF892B0C
:1013000009F030CFF8E78F16F9E69F06A104B10483
:1013100054F181E090E066968EAF9FAF6697699634
:101320008FAF699720E030E040E251E4C201B101A3
:101330000E948E100E94A10F7F936F938AEF92EA12
:101340009F938F9383E998E39F938F930E94021159
:1013500083E998E30E946F030F900F900F900F9016
:101360000F900F90FFCE66961EAE1FAE6697FACE18
:10137000208131812130310509F44CC060F02230E8
:10138000310509F475C02330310509F4D5C0F801E1
:10139000808191812DCF4601F5E18F0E911C83E272
:1013A0008093290AF601EF5AFF4F0190F081E02D5A
:1013B00083E290E08787908B61E088E00E94C7011C
:1013C00068EE73E080E090E00E94B2005EE1A52E3E
:1013D000B12CD12CC12CA7968EAD9FADA7970E94A2
:1013E000DE02C80ED91E21E0A21AB108A1F735E12C
:1013F000C316D1045CF081E090E0F8018083918312
:10140000C4010E94840381E090E041C0F801108291
:101410001182F6CF019731F482E090E0F3018083EE
:101420009183B5CF2FB7F8948091973990919839DF
:10143000A0919939B0919A392FBFAB964CAD5DAD63
:101440006EAD7FADAB975C016D01A41AB50AC60AFB
:10145000D70AB601A501413157426105710508F46B
:1014600096CFAB968CAF9DAFAEAFBFAFAB97D4CF9F
:10147000AF962EAD3FADAF972E3131056CF0019791
:1014800021F0C60145960E94840383E090E0AD966A
:101490008EAF9FAFAD977BCF019771F14AE0A42E3D
:1014A000B12CF5E1CF0ED11C40E050E060EC70E4CF
:1014B000C6010E94EA03A7968EAD9FADA7970E9432
:1014C000DE02E1962EAD3FADE197820F931FE196CC
:1014D0008EAF9FAFE197AF968EAD9FADAF97019660
:1014E000AF968EAF9FAFAF9721E0A21AB108E1F699
:1014F000C6010E9484034BCFF601838994898B97A0
:1015000008F045CFA7968EAD9FADA7970E94DE024B
:10151000E1962EAD3FADE197820F931FE1968EAF1E
:101520009FAFE197AF968EAD9FADAF970196AF9607
:101530008EAF9FAFAF972BCFE1968EAD9FADE1976A
:1015400044977CF081E090E0A3968EAF9FAFA39785
:10155000E1961EAE1FAEE197AF961EAE1FAEAF97DF
:1015600052CFA3961EAE1FAEA397F2CF89819A8168
:101570008230910509F460C078F50097D9F10197A0
:1015800009F448C089819A818230910509F4CDC05F
:1015900008F067C0009709F47CC0019709F052CDAC
:1015A00040E050E060E071E4CE0146960E94EA031C
:1015B00040E061E080E00E942B0231E0C316D104DC
:1015C00009F494C063E0C616D10409F03BCDCE0106
:1015D00046960E94840387C083309105B9F1059730
:1015E00089F669968FAD6997882361F269961FAE77
:1015F000699733C0F80180819181892BA9F06696A3
:101600008EAD9FAD6697892B09F0BCCFCC24C394D7
:10161000D12C0DC0F80180819181892B81F740E0A8
:1016200060E081E00E94190233E0C32ED12CDF92EA
:10163000CF9287E693EA4BCEF801808191810197A2
:1016400009F0A0CF94E0C92ED12CF1CF66968EADD3
:101650009FAD6697019709F095CF82E0C82ED12CF7
:10166000E6CF8430910509F494C008F481C0059751
:1016700009F0E8CC40E060E080E00E94190222E03E
:10168000C216D10409F0DECC19821A821F921F9271
:1016900037C040E060E081E00E9419026CE271E036
:1016A00080E090E00E94B20040E061E080E00E94B3
:1016B00019026CE271E080E090E00E94B20041E02B
:1016C00060E080E00E9419026CE271E080E090E04E
:1016D0000E94B200F1E0CF16D10461F023E0C216FF
:1016E000D10409F042C082E090E006C0CE014696E7
:1016F0000E94840383E090E089839A831F928F93F2
:1017000088E793EA9F938F9387E599E39F938F935D
:101710000E94021187E599E30E946F030F900F90DA
:101720000F900F900F900F908DCC40E060E081E023
:101730000E942B02C7010E949F0374E0C716D104C8
:1017400071F086E0C816D10409F07CCCE5961CAE99
:101750001DAE1EAE1FAEE59785E090E0CDCFE596BD
:101760001CAE1DAE1EAE1FAEE59781E090E0C4CF6B
:1017700041E060E080E00E942B02C7010E949F03CD
:1017800092E0C916D10459F3E6E0CE16D104F1F285
:1017900059CC40E060E081E00E941902C7010E943C
:1017A0009F03F6E0CF16D10409F04CCCCFCFE2E096
:1017B000F8E31282138288EE93E0A0E0B0E0848325
:1017C0009583A683B78382E592EA8083918380E044
:1017D00098E080879187128613860895ABE0B0E089
:1017E000E4EFFBE00C946C0E7C013B018A01FC01F0
:1017F00016821782838181FFC8C1CE0101965C01E8
:10180000F7019381F30193FD859193FF81913F014E
:10181000882309F453C1853239F493FD859193FFF0
:1018200081913F01853229F4B70190E00E94DE0DDD
:10183000E7CF912C212C312CFFE1F31538F08B32BE
:1018400011F190F4803209F1833229F137FC3CC068
:1018500020ED280F2A3050F536FE20C08AE0989EF1
:10186000200D1124922E06C08D3291F0803371F735
:10187000689430F8F30193FD859193FF81913F01C6
:101880008111DACF21C0689431F8689432F8F2CF30
:10189000689433F8EFCF689434F8ECCFEAE02E9EEA
:1018A000200D1124222E689435F8E4CF8E3229F4CD
:1018B00036FC04C1689436F8DDCF8C3619F4689490
:1018C00037F8D8CF8836B1F2982F9F7D9554933052
:1018D000E0F08336A1F18337C1F1833509F063C0AD
:1018E0002801F2E04F0E511CF801C080D180692D13
:1018F00070E036FC02C06FEF7FEFC6010E94C80D9A
:101900004C01689437F882010AC00C5F1F4FFFE357
:10191000F98388248394912C6501E89437F833FE89
:101920002DC0522C8114910471F5552009F468CF13
:10193000B70180E290E00E94DE0D5A94F6CFF801E4
:10194000808189830E5F1F4FE4CF2801F2E04F0EA4
:10195000511CF801C080D180692D70E036FC02C0B6
:101960006FEF7FEFC6010E94D30D4C018201D5CFEE
:10197000B70180E290E00E94DE0D2A942814190439
:1019800009F0B0F7CECFF60137FC859137FE819193
:101990006F01B70190E00E94DE0D51105A94F1E002
:1019A0008F1A9108BFCF843619F0893609F077C0B5
:1019B000F80137FE6BC060817181828193810C5F79
:1019C0001F4FF32DFF763F2E97FF09C0909580950E
:1019D000709561957F4F8F4F9F4F689437F82AE03D
:1019E00030E0A5010E940E0EC82ECA188C2C432C84
:1019F00036FE0CC0E89440F8C91440F434FE05C02B
:101A000032FC03C0F32DFE7E4F2E892C44FE95C080
:101A1000FE01EC0DF11D8081803309F087C0242D7B
:101A2000297E422E842D8870582E43FC95C040FE9E
:101A30008FC09C2C821418F42C0C922C981844FE05
:101A400091C0B70180E390E00E94DE0D42FE09C024
:101A500088E790E041FE02C088E590E0B7010E946F
:101A6000DE0DC91408F48AC0CA94D12C9FEFC91A9C
:101A7000D90ACA0CDB1CF60182916F01B70190E014
:101A80000E94DE0DAC14BD04B1F74FCF60817181AF
:101A9000072E000C880B990B0E5F1F4F92CFD32C93
:101AA000E894D4F82AE030E0853739F1232D297FF6
:101AB000D22E8F3601F148F48835A9F0F7018681DE
:101AC00097812B96E2E10C94850E803749F0883798
:101AD000A9F7D4FE02C06894D2F820E130E00DC02E
:101AE0006894D4F8F6CF34FE03C0822F8660D82ED7
:101AF00020E132E002C028E030E0F801D7FE0FC05C
:101B000060817181828193810C5F1F4FA5010E94CA
:101B10000E0EC82ECA183D2CE89437F867CF6081A6
:101B2000718190E080E00E5F1F4FF0CF42FC02C059
:101B3000839478CF8394839475CF842D867809F429
:101B400071CFF6CFB70180E290E00E94DE0D839462
:101B50008214C0F3512C73CF522C5818821408F4FD
:101B60006ECFF8CF842D867809F47BCF8BE241FECF
:101B700080E247FC8DE2B70190E071CFB70180E3CE
:101B800090E00E94DE0D9A946CCF8FEF9FEF99CF7B
:101B9000FC010590615070400110D8F78095909538
:101BA0008E0F9F1F0895FC0161507040019001103D
:101BB000D8F7809590958E0F9F1F08950F931F93D0
:101BC000CF93DF93182F092FEB018B8181FD09C083
:101BD0001FEF0FEF812F902FDF91CF911F910F916A
:101BE000089582FF14C02E813F818C819D8128172A
:101BF00039073CF4E881F981CF0101968883998304
:101C000010838E819F8101968E839F83E3CFE88529
:101C1000F985812F0995892BA1F3DACFFA01AA273B
:101C2000283051F1203181F1E8946F936E7F6E5F1F
:101C30007F4F8F4F9F4FAF4FB1E03ED0B4E03CD0CD
:101C4000670F781F891F9A1FA11D680F791F8A1FB0
:101C5000911DA11D6A0F711D811D911DA11D20D017
:101C600009F468943F912AE0269F11243019305DD1
:101C70003193DEF6CF010895462F4770405D4193C2
:101C8000B3E00FD0C9F7F6CF462F4F70405D4A330F
:101C900018F0495D31FD4052419302D0A9F7EACFD7
:101CA000B4E0A6959795879577956795BA95C9F706
:101CB00000976105710508959B01AC010A2E0694F9
:101CC0005795479537952795BA95C9F7620F731FB2
:101CD000841F951FA01D08952F923F924F925F92EF
:101CE0006F927F928F929F92AF92BF92CF92DF922C
:101CF000EF92FF920F931F93CF93DF93CDB7DEB791
:101D0000CA1BDB0BCDBFDEBF09942A8839884888FF
:101D10005F846E847D848C849B84AA84B984C88407
:101D2000DF80EE80FD800C811B81AA81B981CE0FFE
:101D3000D11DCDBFDEBFED0108950E94AE0EA59F5F
:101D4000900DB49F900DA49F800D911D11240895B6
:101D5000EE0FFF1F0590F491E02D0994A29FB001B2
:101D6000B39FC001A39F700D811D1124911DB29FCF
:101D7000700D811D1124911D08955058BB27AA276D
:101D80000E94D50E0C944F100E94411038F00E9412
:101D9000481020F039F49F3F19F426F40C943E10BB
:101DA0000EF4E095E7FB0C943810E92F0E946010C8
:101DB00058F3BA17620773078407950720F079F480
:101DC000A6F50C9482100EF4E0950B2EBA2FA02DE0
:101DD0000B01B90190010C01CA01A0011124FF27D8
:101DE000591B99F0593F50F4503E68F11A16F040D3
:101DF000A22F232F342F4427585FF3CF46953795D2
:101E00002795A795F0405395C9F77EF41F16BA0B96
:101E1000620B730B840BBAF09150A1F0FF0FBB1F44
:101E2000661F771F881FC2F70EC0BA0F621F731F8D
:101E3000841F48F4879577956795B795F7959E3FEA
:101E400008F0B0CF9395880F08F09927EE0F97957B
:101E5000879508950E94141008F481E008950E9467
:101E6000430F0C944F100E94481058F00E944110EC
:101E700040F029F45F3F29F00C94381051110C9474
:101E800083100C943E100E94601068F39923B1F304
:101E9000552391F3951B550BBB27AA276217730790
:101EA000840738F09F5F5F4F220F331F441FAA1F24
:101EB000A9F335D00E2E3AF0E0E832D091505040E0
:101EC000E695001CCAF72BD0FE2F29D0660F771F8E
:101ED000881FBB1F261737074807AB07B0E809F074
:101EE000BB0B802DBF01FF2793585F4F3AF09E3FF9
:101EF000510578F00C9438100C9483105F3FE4F394
:101F0000983ED4F3869577956795B795F7959F5F3B
:101F1000C9F7880F911D9695879597F90895E1E087
:101F2000660F771F881FBB1F621773078407BA07E6
:101F300020F0621B730B840BBA0BEE1F88F7E09541
:101F400008950E94A80F6894B1110C94831008950D
:101F50000E94681088F09F5798F0B92F9927B751C1
:101F6000B0F0E1F0660F771F881F991F1AF0BA953D
:101F7000C9F714C0B13091F00E948210B1E0089509
:101F80000C948210672F782F8827B85F39F0B93FFB
:101F9000CCF3869577956795B395D9F73EF49095F0
:101FA0008095709561957F4F8F4F9F4F0895E8946E
:101FB00009C097FB3EF490958095709561957F4F91
:101FC0008F4F9F4F9923A9F0F92F96E9BB2793953F
:101FD000F695879577956795B795F111F8CFFAF44F
:101FE000BB0F11F460FF1BC06F5F7F4F8F4F9F4F80
:101FF00016C0882311F096E911C0772321F09EE8DE
:10200000872F762F05C0662371F096E8862F70E043
:1020100060E02AF09A95660F771F881FDAF7880F1D
:102020009695879597F90895990F0008550FAA0B73
:10203000E0E8FEEF16161706E807F907C0F01216DB
:102040001306E407F50798F0621B730B840B950BDE
:1020500039F40A2661F0232B242B252B21F4089533
:102060000A2609F4A140A6958FEF811D811D0895D0
:1020700097F99F6780E870E060E008959FEF80EC3B
:10208000089500240A9416161706180609060895DE
:1020900000240A9412161306140605060895092E44
:1020A0000394000C11F4882352F0BB0F40F4BF2BB3
:1020B00011F460FF04C06F5F7F4F8F4F9F4F0895F3
:1020C00057FD9058440F551F59F05F3F71F04795E9
:1020D000880F97FB991F61F09F3F79F087950895CE
:1020E000121613061406551FF2CF4695F1DF08C0ED
:1020F000161617061806991FF1CF8695710561050A
:1021000008940895E894BB2766277727CB0197F9B1
:1021100008950E94141008F48FEF08950E94A110F2
:102120000C944F100E94411038F00E94481020F08B
:10213000952311F00C9438100C943E1011240C943B
:1021400083100E94601070F3959FC1F3950F50E0CB
:10215000551F629FF001729FBB27F00DB11D639F59
:10216000AA27F00DB11DAA1F649F6627B00DA11DFF
:10217000661F829F2227B00DA11D621F739FB00DA5
:10218000A11D621F839FA00D611D221F749F332715
:10219000A00D611D231F849F600D211D822F762FAE
:1021A0006A2F11249F5750409AF0F1F088234AF08B
:1021B000EE0FFF1FBB1F661F771F881F91505040F7
:1021C000A9F79E3F510580F00C9438100C948310B1
:1021D0005F3FE4F3983ED4F3869577956795B7957E
:1021E000F795E7959F5FC1F7FE2B880F911D969598
:1021F000879597F90895FB01DC0101900D9200206D
:10220000E1F70895AEE0B0E0E8E0F1E10C947A0E79
:102210000D891E8986E08C8309831A838FEF9FE7DF
:102220008D839E83AE01475E5F4F6F89788DCE01AF
:1022300001960E94EE0B2F813885020F131FF801C3
:0E22400010822E96E4E00C94930EF894FFCFDB
:10224E00000000006501DD000A01B2013B01190129
:10225E002D010504060708090A00101000000010E1
:10226E001010000010000405060703020100010211
:10227E000300000000000101010100000000102019
:10228E00408008040201020408010D0A0074696D01
:10229E00656F757400736574706F696E7420256454
:1022AE002070776D3A202564206F75743A2025646E
:1022BE00206572726F723A2025640056414C4F525F
:1022CE0020494E56414C49444F2044452050574DCD
:1022DE0020256400524553455400656E67696E654E
:1022EE00207475726E6564206F666600656E676930
:1022FE006E65207475726E6564206F6E20766261F5
:10230E00743D20256400656E67696E652073746187
:10231E007475733A202564202C20766261743A20FD
:10232E0025642C207761746572206C6576656C3A35
:10233E002025642063757272656E74206F757470DB
:10234E0075743A20256400696E7465726E616C2036
:10235E006576656E7420256400726169736564200C
:10236E006576656E743A202564006368616E6769F0
:0E237E006E67207374617465202D2025640045
:02238C008A00C5
:00000001FF
