:100000000C943F000C9468000C9468000C946800F9
:100010000C9468000C9468000C9468000C946800C0
:100020000C9468000C9468000C9468000C946800B0
:100030000C9468000C9468000C9468000C94A7055C
:100040000C9468000C9468000C9468000C94680090
:100050000C9468000C9468000C9468000C94680080
:100060000C9468000C9468000C9468000C94E805EB
:100070000C94E1050C94EF050C946800AE0B112470
:100080001FBECFEFCDBFDFE3DEBF80914000809386
:100090004000811105C098ED21E094BF20934100FC
:1000A0008CBB29E3A0E0B8E301C01D92A43AB207DB
:1000B000E1F710E0CFE3D0E004C02197FE010E94F9
:1000C0007F0ECE33D107C9F70E946A060C94FC104C
:1000D0000C9400009FB7F89488E08093840A809184
:1000E0008E0A81FFFCCF80918D0AE091A20AF091E7
:1000F000A30A20919B3930919C3940919D395091B0
:100100009E399FBF80FF07C0E730F10520F42F5FC5
:100110003F4F4F4F5F4FBF0176956795CF01860FD9
:10012000911DE62FE695E695762F72957F70E71B79
:10013000FF0B67FD3196E80FF91FA0E3B3E00E94C3
:10014000740E6E0F7F1F811D911D0895CF92DF9257
:10015000EF92FF92CF93DF936B017C010E946A00C4
:10016000EB01C114D104E104F10441F413C081E0B6
:10017000C81AD108E108F108C851DC4F0E946A0092
:100180006C1B7D0B683E734060F3C114D104E10425
:10019000F10469F7DF91CF91FF90EF90DF90CF905E
:1001A0000895AF92BF92CF92DF92EF92FF920F939A
:1001B0001F93CF93DF936C017B018B01040F151FFD
:1001C000EB015E01AE18BF08C017D10759F0699165
:1001D000D601ED91FC910190F081E02DC6010995C9
:1001E000892B79F7C501DF91CF911F910F91FF9076
:1001F000EF90DF90CF90BF90AF900895FC015785AE
:100200004089252F30E0842F90E0821B930B5417F8
:1002100010F0CF96089501970895FC019585868585
:10022000981761F0A685AE0FBF2FB11D51968C9126
:1002300096859F5F9F73968790E008958FEF9FEF5D
:100240000895FC0195858685981731F08685E80F1D
:10025000F11D818990E008958FEF9FEF0895FC01D3
:1002600095852685892F90E0805C9F4F821B9109A0
:100270008F7399270895DC010FB607FE04C08091A3
:1002800011018823B9F01896ED91FC91199784819A
:1002900085FF10C01F969C911F9750968C919813C4
:1002A00004C085818F7D85830895E0E0F8E3E894BC
:1002B0000C94FD0508950F931F93CF93DF93EC01EA
:1002C0008C8581608C879F85888998130BC0E88511
:1002D000F985848185FF06C08C8581FD0EC080E490
:1002E000848313C0062F1F851F5F1F7388898113A6
:1002F00016C0CE010E943B01F9CF85818F778064C3
:1003000090E49483E885F9858583E885F98562839F
:1003100081E090E0DF91CF911F910F910895EF85DB
:10032000EC0FFD2FF11DEF5AFF4F00831F878C85C7
:10033000E885F98581FF09C085818F77806690E423
:100340009483E885F9858583E3CF85818062FBCF3F
:10035000CF93DF93EC018C85882361F0E885F985E4
:10036000858185FD03C0848186FD04C0CE010E9485
:100370003B01F4CFDF91CF910895CF93DF93282FE6
:1003800030E0E901C65CDD4588818F3F71F1A9014C
:10039000425D5D45DA01EC91B0E2EB9FF001112482
:1003A000FC5F611125C0868390818923A1F4C90176
:1003B0008E5D9D45DC019C913097E1F09830D0F442
:1003C0007096E90FF11D9FB7F8948081611115C0F7
:1003D000877F80839FBF2A5E3D45F9018081882306
:1003E00021F0803161F08038E1F0DF91CF91089504
:1003F0008583DACFF0E0E0E0E6CF8860EACF88815D
:10040000DA019C91913059F4853010F0880F829573
:100410009091010A809589238093010AE6CF880F85
:10042000F7CF1092A006E1CFCF93DF93D62FC42F42
:10043000682F82E00E94BD016D2F81E00E94BD0106
:100440006C2F83E0DF91CF910C94BD018F929F922E
:10045000AF92BF92CF92DF92EF92FF920F931F93D2
:100460009FB7F89400919739109198392091993954
:1004700030919A399FBFC090A039D090A139E090B7
:10048000A239F090A339480159018C189D08AE0893
:10049000BF087501640194EFC91691E0D906E10423
:1004A000F10470F00093A0391093A1392093A23980
:1004B0003093A33990919F3921E0922790939F39EF
:1004C00090919F39992361F01F910F91FF90EF90C8
:1004D000DF90CF90BF90AF909F908F900C941402BC
:1004E00040E060E080E0F0CF8C30F0F490E0FC0180
:1004F000E65CFD4520812F3FB9F0FC01E25DFD4542
:10050000E08130E2E39FF0011124FC5F60FF0DC049
:1005100021838E5D9D45DC018C91E80FF11D808962
:1005200061FF05C08860808B08952283F2CF877FAA
:10053000FACF8091000669EF72E8882371F082E0BB
:100540008093060681E08093080680910B0680FF69
:10055000FCCF6091100670911106072E000C880BDD
:10056000990B0E94B00F26E636E646E850E40E945A
:10057000651029E939E944E852E40E94060F20E0B9
:1005800030E040E85EE30E94651008958F929F92EC
:10059000AF92BF92CF92DF92EF92FF92CF93DF9311
:1005A0005C01FC01C785D0890E9499026B017C0126
:1005B000F501C286D386E486F58620E030E0A90105
:1005C0000E94010F882309F458C0BE0190E080E02A
:1005D0000E94AE0F27E93FEF40E95DE30E946510FE
:1005E0009B01AC0163EC74E68CEB90E40E94940EEA
:1005F0004B015C012CEF39EA41EF5DE3C701B60125
:100600000E94651029E630E047EF5FE30E94950EF7
:1006100020E030E040E05FE30E94950E6B017C013A
:100620002DEC3CEC4CE45EE30E94950E9B01AC018A
:10063000C501B4010E94010F1816FCF02DEC3CEC32
:100640004CE45EE3C701B6010E94940E9B01AC012D
:10065000D1E0C0E0C501B4010E94601087FDD0E088
:100660008D2F9C2FDF91CF91FF90EF90DF90CF9057
:10067000BF90AF909F908F90089580E090E0F2CF70
:10068000FC0101900020E9F73197AF01481B590B9D
:10069000BC0180E098E30E94D10042E050E066E4B3
:1006A00072EA80E098E30C94D100CF93DF93EC01E1
:1006B00060E088E00E94BD018EE48093290AECADE1
:1006C000FDAD8EE490E08787908B18AE19AE1AAE20
:1006D0001BAE1286138614861586DF91CF9108957E
:1006E000CF92DF92EF92FF920F931F93CF93DF93FE
:1006F0002FB7F89440919739509198396091993972
:1007000070919A392FBF8C0100591F4FF801C0809A
:10071000D180E280F380C114D104E104F10469F4D2
:100720004083518362837383DF91CF911F910F9137
:10073000FF90EF90DF90CF9008954C195D096E09FE
:100740007F09413E53496440710570F3EC0169E44F
:1007500072EA85E599E30E94D21085E599E30E944B
:10076000400386E090E08A839B83F8011082118227
:1007700012821382D9CF4F925F926F927F928F92A3
:100780009F92AF92BF92CF92DF92EF92FF920F9320
:100790001F93CF93DF93CDB7DEB76297CDBFDEBF98
:1007A000898B9A8BDC01DC960D911C91DD97D89694
:1007B000CD90DD90ED90FC90DB979A01AB01C701E5
:1007C000B6010E94010F87FF0EC020E030E040E03C
:1007D0005FE3C701B6010E94950EE989FA8960AF0F
:1007E00071AF82AF93AF0E94990269837A838B8342
:1007F0009C83D8011A966D937D938D939C931D973E
:10080000A989BA89D8968D919D910D90BC91A02D02
:1008100089879A87AB87BC8729813A814B815C8124
:10082000BC01CD010E94940E6B017C01E989FA891B
:1008300020813181428153810E9465106D877E87BE
:100840008F87988BA989BA8990968D919D910D90EB
:10085000BC91A02D8D839E83AF83B88720E030E0CC
:1008600040E05FE3E989FA89648175818681978137
:100870000E9465102D813E814F8158850E94651030
:100880004B015C01A989BA8998962D913D914D91B2
:100890005C919B97C701B6010E94950E9B01AC012C
:1008A000C501B4010E946510E989FA8924A135A126
:1008B00046A157A10E94950E4B015C01A989BA89F6
:1008C00094968D929D92AD92BC9297975C964D9026
:1008D0005D906D907C905F97A30192010E946010E3
:1008E00018163CF4E989FA8944A255A266A277A2B7
:1008F00010C0A989BA8958964D905D906D907C90F2
:100900005B97A3019201C501B4010E94010F87FD0D
:10091000E9CFA989BA891C966D917D918D919C91A1
:100920001F979B01AC010E94950E2B013C01E989A8
:10093000FA8960857185828593859B01AC010E944F
:10094000950E4B015C01A989BA89D0962D913D91F4
:100950004D915C91D39769817A818B819C810E94B2
:10096000940E9B01AC01C501B4010E9465104B01BE
:100970005C012D813E814F815885C301B2010E94E7
:10098000940EE989FA8924A535A546A557A50E94A4
:1009900065109B01AC01C501B4010E94950E4B018D
:1009A0005C01B7FAB094B7F8B094A30192016D81DD
:1009B0007E818F8198850E94950E9B01AC01C501B7
:1009C000B4010E94060F4B015C01A989BA899C966B
:1009D0008D929D92AD92BC929F9794962D913D9150
:1009E0004D915C9197976D857E858F8598890E9442
:1009F000950EA50194010E94950E4B015C01E989B9
:100A0000FA8984AA95AAA6AAB7AA448855886688AE
:100A10007788A30192010E94601018164CF4A989EE
:100A2000BA89D4964D925D926D927C92D7970EC002
:100A3000E989FA894088518862887388A301920104
:100A4000C501B4010E94010F87FDE9CFE989FA8948
:100A5000C0A6D1A6E2A6F3A689819A81AB81BC810A
:100A600080AB91ABA2ABB3AB44A855A866A877A85E
:100A7000A301920160E070E08CE992E40E94940E80
:100A80000E947F0F4B01C701B6010E947F0F7F9329
:100A90006F93C301B2010E947F0F7F936F939F9268
:100AA0008F9269857A858B859C850E947F0F7F93C5
:100AB0006F9381E592EA9F938F9301ED18E31F9363
:100AC0000F930E94D910C8010E944003C40183976C
:100AD000CDBFDEBF8C9730F58092290AA989BA89EB
:100AE000DC96ED91FC918786908A61E088E00E9417
:100AF000BD016AE070E080E090E06296CDBFDEBFAD
:100B0000DF91CF911F910F91FF90EF90DF90CF90E9
:100B1000BF90AF909F908F907F906F905F904F901D
:100B20000C94A6009F928F9287E792EA9F938F93EF
:100B30001F930F930E94D91081ED98E30E94400308
:100B40000F900F900F900F900F900F90CECFEF93CC
:100B5000FF93E5E9F9E38F938FB78F939F937F938B
:100B600070E080819181805D9C4F80839183885E5D
:100B7000934018F0808391837F5F9281970F9283D7
:100B800080E09381981F93839481981F948395812B
:100B9000981F958396819F5F968397819F4F978338
:100BA00090859F4F908791859F4F918781E080939B
:100BB0008D0A7F919F918F918FBF8F91FF91EF91C0
:100BC0001895EF93FF93F898E0E0F8E30C94F5059F
:100BD000EF93FF93F898E0E0F8E30C942406EF938A
:100BE000FF93E0E0F8E30C9451062F932FB72F9377
:100BF0008F939F93AF93BF936894CF93DF9320E03D
:100C0000C085D8E09089DF01A90FB21FAF5ABF4F4E
:100C10008C9120E42C838A839F5F9F738D8127852D
:100C2000291302C08F7D8D83908BDF91CF9116F0B9
:100C30000C945A01BF91AF919F918F912F912FBF2B
:100C40002F91FF91EF9118952F932FB72F933F93EB
:100C50008F939F93CF93DF93C085D8E0898198814C
:100C60008674880F3485382B82FD0DC0C58581E0E0
:100C70008C0F8F732685281791F0CE0FDF2F20E081
:100C8000D21F998B85873487DF91CF919F918F9168
:100C90003F912F912FBF2F91FF91EF9118953064C5
:100CA000F2CF8F938FB78F939F93CF93DF93C085AE
:100CB000D8E09D8188818C8187FDFCCF9F7B9068E7
:100CC0009D83DF91CF919F918F918FBF8F91FF91E6
:100CD000EF911895CF93DF93CDB7DEB7CC57D109FD
:100CE000CDBFDEBF88ED90E084BF90936100E0E06F
:100CF000F6E083E582838DE0858380E2838381E073
:100D00008083109202028093030A9EEF9093260A3A
:100D10009093270A9BE09093000AE0E8FAE02DEF19
:100D200031E026A737A7118290E89283848781E17A
:100D30008083789480910C3880FF12C080E098E323
:100D40000E94A801E0910838F091093816821582B6
:100D500080EC848380910E3880930D3810920C388B
:100D6000FFB6F894E0910838F0910938168283E0D4
:100D700087838DE890E280879187148680E8858359
:100D800080EC868390910B3800910A3880910102A3
:100D9000992309F484C2816080930102090F11270D
:100DA000111F000F111F000F111F025F1D4561E091
:100DB000F80180810E94740262E0F80181810E9442
:100DC0007402FFBE61E088E00E94740260E088E087
:100DD0000E94BD0161E08AE00E94740280E180937C
:100DE000010A8AE98093270A8EE48093290A89E020
:100DF0008093000A61E085E00E94740260E084E074
:100E00000E94740260E086E00E94740260E089E063
:100E10000E94740260E080E00E94740260E087E05B
:100E20000E94740261E082E00E94740261E081E04D
:100E30000E94740261E083E00E94740280910006C7
:100E40008B7F809300068091A0008F7880638093D1
:100E5000A000809102068F788064809302069E0134
:100E60002F5F3F4F79012D833E831F86188A198A91
:100E70001A8A1D861F8218861B8A8EE490E08C8B4E
:100E80009D8B29873A871E86E5961CAE1DAE1EAE49
:100E90001FAEE5971B821C8219821A826F961EAEC6
:100EA0001FAE6F9768961EAE1FAE689766961EAE11
:100EB0001FAE66976D961CAE1DAE1EAE1FAE6D9733
:100EC0006E0138E5C30ED11CF6011082CE010596E5
:100ED000A1968EAF9FAFA19762961CAE1DAE1EAEBF
:100EE0001FAE62974AE959E969E97FE34E8B5F8B50
:100EF000688F798F4AE959E969E17FE34A8F5B8F0F
:100F00006C8F7D8F1E8E1F8E18A219A24AE057ED9E
:100F100063EA7CE34AA35BA36CA37DA34DEC5CEC8A
:100F20006CEC7DE34EAB5FAB68AF79AF1EA21FA246
:100F300018A619A640E050E06CE272E44AA75BA74D
:100F40006CA77DA71EA61FA618AA19AA4AAB5BAB61
:100F50006CAB7DAB64968EAF9FAF64978E010F59DB
:100F60001F4FF80110821182A5961EAE1FAEA597E5
:100F7000AB961CAE1DAE1EAE1FAEAB979E012159A7
:100F80003F4FE7962EAF3FAFE797E1961EAE1FAEFD
:100F9000E1973C96E996EEAFFFAFE997AF961EAEAC
:100FA0001FAEAF9724503109EB962EAF3FAFEB97B2
:100FB000AD961EAE1FAEAD973897ED96EEAFFFAF74
:100FC000ED97A7968EAF9FAFA79760E972EA85E588
:100FD00099E30E94D21085E599E30E9440039E01A7
:100FE00025593F4F390166968EAD9FAD669768963D
:100FF0008EAF9FAF68978091000669EF72E88823F3
:1010000071F08AE08093060681E080930806809163
:101010000B0680FFFCCF6091100670911106072E21
:10102000000C880B990B0E94AE0F26E636E646E8C8
:1010300050E40E9465100E94780F0E94B00F2AE9C8
:1010400039E941EF50E40E9465100E94780F4B018E
:101050005C010E94990220E030E046E152E40E94E7
:10106000651020E030E04AEF53E40E94950E0E94A4
:10107000780F072E000C880B990B860E971EA81E62
:10108000B91EC501B4010E94B00F1B012C0120E064
:1010900030E04AE754E40E94060F6D966CAF7DAFD6
:1010A0008EAF9FAF6D976F968EAD9FAD6F97892B6B
:1010B00069F431E5831636E49306A104B10434F0F3
:1010C00081E090E06F968EAF9FAF6F9768968EAD80
:1010D0009FAD68978130910509F0E8C0E1E28E1676
:1010E000E7E69E06A104B1040CF0DBC066961EAED6
:1010F0001FAE669769961FAE699766E972EA81E945
:1011000098E30E94D21081E998E30E94400381E0B5
:1011100066962EAD3FAD6697232B09F480E08D8750
:10112000A796EEADFFADA797C080D180A3968EADF8
:101130009FADA397A5968EAF9FAFA597F301818131
:101140008F9380818F9387E393EA9F938F9361E1DD
:10115000A62E69E3B62EBF92AF920E94D910C501A8
:101160000E944003F601808191819C012350310946
:101170000F900F900F900F900F900F90F30123306E
:10118000310508F0CCC010821182A5968EAD9FADBE
:10119000A597A3968EAF9FAFA39721E0892B09F463
:1011A00020E02E878FB7F894409197395091983965
:1011B0006091993970919A398FBF8091513990918E
:1011C0005239A0915339B0915439481B590B6A0BCD
:1011D0007B0B493E53406105710508F441C08851BD
:1011E0009C4FAF4FBF4F8093513990935239A0938A
:1011F0005339B09354396F85788989899A890E94C7
:10120000780F7F936F93F80181818F9380818F9303
:1012100020E030E040E251E46D966CAD7DAD8EADE6
:101220009FAD6D970E9465100E94780F7F936F931A
:1012300066968FAD66978F9365968FAD65978F9302
:1012400082EC92EA9F938F9385E599E39F938F9326
:101250000E94D91085E599E30E944003CDBFDEBF0F
:10126000CB80DC80C114D10409F457C11B821C82DD
:10127000DF92CF9283E093EA9F938F9385E599E382
:101280009F938F930E94D91085E599E30E944003B4
:101290000F900F900F900F900F900F904AC18E7F7C
:1012A0007BCD66968EAF9FAF669731CF892B09F0C5
:1012B0002ECFF8E78F16F9E69F06A104B10454F18A
:1012C00081E090E066968EAF9FAF669769968FAF8C
:1012D000699720E030E040E251E4C201B1010E9490
:1012E00065100E94780F7F936F9388EA92EA9F932C
:1012F0008F9381E998E39F938F930E94D91081E99E
:1013000098E30E9440030F900F900F900F900F9062
:101310000F90FDCE66961EAE1FAE6697F8CE20816A
:1013200031812130310509F44CC060F022303105A3
:1013300009F475C02330310509F4D5C0F801808166
:1013400091812BCF4601F5E18F0E911C83E28093B2
:10135000290AF601EF5AFF4F0190F081E02D83E258
:1013600090E08787908B61E088E00E94BD0168EE85
:1013700073E080E090E00E94A6005EE1A52EB12C13
:10138000D12CC12CA7968EAD9FADA7970E94C60207
:10139000C80ED91E21E0A21AB108A1F735E1C31683
:1013A000D1045CF081E090E0F80180839183C40176
:1013B0000E94550381E090E041C0F8011082118243
:1013C000F6CF019731F482E090E0F30180839183BE
:1013D000B5CF2FB7F8948091973990919839A09113
:1013E0009939B0919A392FBFAB964CAD5DAD6EADCA
:1013F0007FADAB975C016D01A41AB50AC60AD70A86
:10140000B601A501413157426105710508F496CF37
:10141000AB968CAF9DAFAEAFBFAFAB97D4CFAF960F
:101420002EAD3FADAF972E3131056CF0019721F015
:10143000C60145960E94550383E090E0AD968EAFBD
:101440009FAFAD977BCF019771F14AE0A42EB12CED
:10145000F5E1CF0ED11C40E050E060EC70E4C60135
:101460000E94BB03A7968EAD9FADA7970E94C602B0
:10147000E1962EAD3FADE197820F931FE1968EAFBF
:101480009FAFE197AF968EAD9FADAF970196AF96A8
:101490008EAF9FAFAF9721E0A21AB108E1F6C60167
:1014A0000E9455034BCFF601838994898B9708F0EE
:1014B00045CFA7968EAD9FADA7970E94C602E19635
:1014C0002EAD3FADE197820F931FE1968EAF9FAF98
:1014D000E197AF968EAD9FADAF970196AF968EAF69
:1014E0009FAFAF972BCFE1968EAD9FADE19744971D
:1014F0007CF081E090E0A3968EAF9FAFA397E1963A
:101500001EAE1FAEE197AF961EAE1FAEAF9752CF85
:10151000A3961EAE1FAEA397F2CF89819A81823027
:10152000910509F460C078F50097D9F1019709F4A5
:1015300048C089819A818230910509F4CDC008F0B4
:1015400067C0009709F47CC0019709F04CCD40E0DA
:1015500050E060E071E4CE0146960E94BB0340E09B
:1015600061E080E00E94260231E0C316D10409F454
:1015700094C083E0C816D10409F035CDCE0146965B
:101580000E94550387C083309105B9F1059789F60C
:1015900069968FAD6997882361F269961FAE699746
:1015A00033C0F80180819181892BA9F066968EADB8
:1015B0009FAD6697892B09F0BCCFCC24C394D12C66
:1015C0000DC0F80180819181892B81F740E060E0B6
:1015D00081E00E94140233E0C32ED12CDF92CF921F
:1015E00085E193EA49CEF80180819181019709F064
:1015F000A0CF94E0C92ED12CF1CF66968EAD9FADD1
:101600006697019709F095CF82E0C82ED12CE6CFDE
:101610008430910509F494C008F481C0059709F05D
:10162000E2CC40E060E080E00E94140282E0C81654
:10163000D10409F0D8CC19821A821F921F9237C0A8
:1016400040E060E081E00E9414026CE271E080E022
:1016500090E00E94A60040E061E080E00E94140259
:101660006CE271E080E090E00E94A60041E060E062
:1016700080E00E9414026CE271E080E090E00E9441
:10168000A600F1E0CF16D10461F023E0C216D10428
:1016900009F042C082E090E006C0CE0146960E946A
:1016A000550383E090E089839A831F928F9386E2AB
:1016B00093EA9F938F9385E599E39F938F930E947D
:1016C000D91085E599E30E9440030F900F900F9089
:1016D0000F900F900F9087CC40E060E081E00E9477
:1016E0002602C7010E94700394E0C916D10471F06C
:1016F000E6E0CE16D10409F076CCE5961CAE1DAE20
:101700001EAE1FAEE59785E090E0CDCFE5961CAE0E
:101710001DAE1EAE1FAEE59781E090E0C4CF41E064
:1017200060E080E00E942602C7010E947003F2E0A0
:10173000CF16D10459F326E0C216D104F1F253CCEE
:1017400040E060E081E00E941402C7010E94700343
:1017500036E0C316D10409F046CCCFCFE0E0F8E381
:101760001282138288EE93E0A0E0B0E08483958338
:10177000A683B78380E092EA8083918380E098E03B
:1017800080879187128613860895ABE0B0E0EBEC7A
:10179000FBE00C94430E7C013B018A01FC011682A4
:1017A0001782838181FFC8C1CE0101965C01F701D8
:1017B0009381F30193FD859193FF81913F018823EC
:1017C00009F453C1853239F493FD859193FF8191DA
:1017D0003F01853229F4B70190E00E94B50DE7CFB3
:1017E000912C212C312CFFE1F31538F08B3211F1C3
:1017F00090F4803209F1833229F137FC3CC020EDAE
:10180000280F2A3050F536FE20C08AE0989E200D21
:101810001124922E06C08D3291F0803371F76894B6
:1018200030F8F30193FD859193FF81913F01811180
:10183000DACF21C0689431F8689432F8F2CF689416
:1018400033F8EFCF689434F8ECCFEAE02E9E200D09
:101850001124222E689435F8E4CF8E3229F436FC18
:1018600004C1689436F8DDCF8C3619F4689437F8E3
:10187000D8CF8836B1F2982F9F7D95549330E0F001
:101880008336A1F18337C1F1833509F063C02801A4
:10189000F2E04F0E511CF801C080D180692D70E03C
:1018A00036FC02C06FEF7FEFC6010E949F0D4C0116
:1018B000689437F882010AC00C5F1F4FFFE3F98379
:1018C00088248394912C6501E89437F833FE2DC069
:1018D000522C8114910471F5552009F468CFB70199
:1018E00080E290E00E94B50D5A94F6CFF801808115
:1018F00089830E5F1F4FE4CF2801F2E04F0E511C89
:10190000F801C080D180692D70E036FC02C06FEF15
:101910007FEFC6010E94AA0D4C018201D5CFB7010D
:1019200080E290E00E94B50D2A942814190409F071
:10193000B0F7CECFF60137FC859137FE81916F016C
:10194000B70190E00E94B50D51105A94F1E08F1A42
:101950009108BFCF843619F0893609F077C0F801B5
:1019600037FE6BC060817181828193810C5F1F4F54
:10197000F32DFF763F2E97FF09C0909580957095C7
:1019800061957F4F8F4F9F4F689437F82AE030E082
:10199000A5010E94E50DC82ECA188C2C432C36FEDA
:1019A0000CC0E89440F8C91440F434FE05C032FC81
:1019B00003C0F32DFE7E4F2E892C44FE95C0FE0100
:1019C000EC0DF11D8081803309F087C0242D297E24
:1019D000422E842D8870582E43FC95C040FE8FC047
:1019E0009C2C821418F42C0C922C981844FE91C054
:1019F000B70180E390E00E94B50D42FE09C088E780
:101A000090E041FE02C088E590E0B7010E94B50D6C
:101A1000C91408F48AC0CA94D12C9FEFC91AD90AF4
:101A2000CA0CDB1CF60182916F01B70190E00E94A5
:101A3000B50DAC14BD04B1F74FCF60817181072E95
:101A4000000C880B990B0E5F1F4F92CFD32CE8949C
:101A5000D4F82AE030E0853739F1232D297FD22EC2
:101A60008F3601F148F48835A9F0F7018681978116
:101A70002B96E2E10C945C0E803749F08837A9F789
:101A8000D4FE02C06894D2F820E130E00DC0689422
:101A9000D4F8F6CF34FE03C0822F8660D82E20E122
:101AA00032E002C028E030E0F801D7FE0FC06081CC
:101AB0007181828193810C5F1F4FA5010E94E50D0A
:101AC000C82ECA183D2CE89437F867CF6081718121
:101AD00090E080E00E5F1F4FF0CF42FC02C0839485
:101AE00078CF8394839475CF842D867809F471CF51
:101AF000F6CFB70180E290E00E94B50D8394821486
:101B0000C0F3512C73CF522C5818821408F46ECFA6
:101B1000F8CF842D867809F47BCF8BE241FE80E2FA
:101B200047FC8DE2B70190E071CFB70180E390E010
:101B30000E94B50D9A946CCF8FEF9FEF99CFFC0167
:101B40000590615070400110D8F7809590958E0FE8
:101B50009F1F0895FC016150704001900110D8F75B
:101B6000809590958E0F9F1F08950F931F93CF938D
:101B7000DF93182F092FEB018B8181FD09C01FEF27
:101B80000FEF812F902FDF91CF911F910F9108952B
:101B900082FF14C02E813F818C819D8128173907D7
:101BA0003CF4E881F981CF01019688839983108301
:101BB0008E819F8101968E839F83E3CFE885F9858F
:101BC000812F0995892BA1F3DACFFA01AA272830B2
:101BD00051F1203181F1E8946F936E7F6E5F7F4FFA
:101BE0008F4F9F4FAF4FB1E03ED0B4E03CD0670F76
:101BF000781F891F9A1FA11D680F791F8A1F911DC9
:101C0000A11D6A0F711D811D911DA11D20D009F418
:101C100068943F912AE0269F11243019305D31935A
:101C2000DEF6CF010895462F4770405D4193B3E043
:101C30000FD0C9F7F6CF462F4F70405D4A3318F0EA
:101C4000495D31FD4052419302D0A9F7EACFB4E09B
:101C5000A6959795879577956795BA95C9F7009753
:101C60006105710508959B01AC010A2E06945795F4
:101C7000479537952795BA95C9F7620F731F841F4B
:101C8000951FA01D08952F923F924F925F926F92E1
:101C90007F928F929F92AF92BF92CF92DF92EF92FC
:101CA000FF920F931F93CF93DF93CDB7DEB7CA1B7D
:101CB000DB0BCDBFDEBF09942A88398848885F8452
:101CC0006E847D848C849B84AA84B984C884DF80DC
:101CD000EE80FD800C811B81AA81B981CE0FD11DC0
:101CE000CDBFDEBFED0108950E94850EA59F900D2A
:101CF000B49F900DA49F800D911D11240895EE0FA7
:101D0000FF1F0590F491E02D0994A29FB001B39FAD
:101D1000C001A39F700D811D1124911DB29F700DF4
:101D2000811D1124911D08955058BB27AA270E9498
:101D3000AC0E0C9426100E94181038F00E941F1050
:101D400020F039F49F3F19F426F40C9415100EF48A
:101D5000E095E7FB0C940F10E92F0E94371058F321
:101D6000BA17620773078407950720F079F4A6F580
:101D70000C9459100EF4E0950B2EBA2FA02D0B01E8
:101D8000B90190010C01CA01A0011124FF27591BC0
:101D900099F0593F50F4503E68F11A16F040A22FC6
:101DA000232F342F4427585FF3CF46953795279537
:101DB000A795F0405395C9F77EF41F16BA0B620B36
:101DC000730B840BBAF09150A1F0FF0FBB1F661F7D
:101DD000771F881FC2F70EC0BA0F621F731F841FC0
:101DE00048F4879577956795B795F7959E3F08F0E6
:101DF000B0CF9395880F08F09927EE0F97958795A8
:101E000008950E94EB0F08F481E008950E941A0FD4
:101E10000C9426100E941F1058F00E94181040F0D9
:101E200029F45F3F29F00C940F1051110C945A10B3
:101E30000C9415100E94371068F39923B1F35523C1
:101E400091F3951B550BBB27AA27621773078407CD
:101E500038F09F5F5F4F220F331F441FAA1FA9F363
:101E600035D00E2E3AF0E0E832D091505040E69551
:101E7000001CCAF72BD0FE2F29D0660F771F881FB2
:101E8000BB1F261737074807AB07B0E809F0BB0BA5
:101E9000802DBF01FF2793585F4F3AF09E3F5105B9
:101EA00078F00C940F100C945A105F3FE4F3983EB6
:101EB000D4F3869577956795B795F7959F5FC9F7A2
:101EC000880F911D9695879597F90895E1E0660F23
:101ED000771F881FBB1F621773078407BA0720F09C
:101EE000621B730B840BBA0BEE1F88F7E095089505
:101EF0000E947F0F6894B1110C945A1008950E94AB
:101F00003F1088F09F5798F0B92F9927B751B0F03C
:101F1000E1F0660F771F881F991F1AF0BA95C9F76D
:101F200014C0B13091F00E945910B1E008950C94A2
:101F30005910672F782F8827B85F39F0B93FCCF355
:101F4000869577956795B395D9F73EF490958095EA
:101F5000709561957F4F8F4F9F4F0895E89409C00A
:101F600097FB3EF490958095709561957F4F8F4FCC
:101F70009F4F9923A9F0F92F96E9BB279395F695E2
:101F8000879577956795B795F111F8CFFAF4BB0F60
:101F900011F460FF1BC06F5F7F4F8F4F9F4F16C0C4
:101FA000882311F096E911C0772321F09EE8872F4E
:101FB000762F05C0662371F096E8862F70E060E00A
:101FC0002AF09A95660F771F881FDAF7880F969583
:101FD000879597F90895990F0008550FAA0BE0E827
:101FE000FEEF16161706E807F907C0F012161306DB
:101FF000E407F50798F0621B730B840B950B39F41B
:102000000A2661F0232B242B252B21F408950A2680
:1020100009F4A140A6958FEF811D811D089597F9C0
:102020009F6780E870E060E008959FEF80EC08957E
:1020300000240A94161617061806090608950024A7
:102040000A9412161306140605060895092E039421
:10205000000C11F4882352F0BB0F40F4BF2B11F495
:1020600060FF04C06F5F7F4F8F4F9F4F089557FDF4
:102070009058440F551F59F05F3F71F04795880FF6
:1020800097FB991F61F09F3F79F08795089512168D
:1020900013061406551FF2CF4695F1DF08C0161639
:1020A00017061806991FF1CF8695710561050894EA
:1020B0000895E894BB2766277727CB0197F9089501
:1020C0000E94EB0F08F48FEF08950E9478100C9493
:1020D00026100E94181038F00E941F1020F095233F
:1020E00011F00C940F100C94151011240C945A102C
:1020F0000E94371070F3959FC1F3950F50E0551F64
:10210000629FF001729FBB27F00DB11D639FAA274C
:10211000F00DB11DAA1F649F6627B00DA11D661F9B
:10212000829F2227B00DA11D621F739FB00DA11DBC
:10213000621F839FA00D611D221F749F3327A00D76
:10214000611D231F849F600D211D822F762F6A2F12
:1021500011249F5750409AF0F1F088234AF0EE0F77
:10216000FF1FBB1F661F771F881F91505040A9F7A4
:102170009E3F510580F00C940F100C945A105F3F55
:10218000E4F3983ED4F3869577956795B795F795E0
:10219000E7959F5FC1F7FE2B880F911D9695879558
:1021A00097F90895FB01DC0101900D920020E1F701
:1021B0000895AEE0B0E0EFEDF0E10C94510E0D8922
:1021C0001E8986E08C8309831A838FEF9FE78D83B6
:1021D0009E83AE01475E5F4F6F89788DCE01019679
:1021E0000E94C50B2F813885020F131FF801108242
:0C21F0002E96E4E00C946A0EF894FFCFE9
:1021FC00000000005B01D100FE00A8012F010D01C1
:10220C0021010504060708090A00101080000010BF
:10221C001010000010000405060703020100010263
:10222C00030000000000010101010000000010206B
:10223C00408008040201020408010D0A0074696D53
:10224C00656F757400736574706F696E74202564A6
:10225C002070776D3A202564206F75743A202564C0
:10226C00206572726F723A2025640056414C4F52B1
:10227C0020494E56414C49444F2044452050574D1F
:10228C0020256400524553455400656E67696E65A0
:10229C00207475726E6564206F666600656E676982
:1022AC006E65207475726E6564206F6E2076626147
:1022BC00743D20256400656E67696E6520737461DA
:1022CC007475733A202564202C20766261743A2050
:1022DC0025642C207761746572206C6576656C3A88
:1022EC002025642063757272656E74206F7574702E
:1022FC0075743A20256400696E7465726E616C2089
:10230C006576656E7420256400726169736564205E
:10231C006576656E743A202564006368616E676942
:0E232C006E67207374617465202D2025640097
:00000001FF
